:1000000000200020C10000001101000011010000CB
:1000100000000000000000000000000000000000E0
:1000200000000000000000000000000011010000BE
:100030000000000000000000110100004D0400005D
:100040001101000001040000000000000000000099
:10005000000000000000000011010000000000008E
:10006000000000000000000011010000000000007E
:100070001101000011010000110100001101000038
:10008000110100000000000000000000000000005E
:100090000000000000000000000000000000000060
:1000A000110100001101000011010000000000001A
:1000B00011010000110100001101000011010000F8
:1000C00000480047C90000000C480D490D4A914204
:1000D00004D203680B6004300431F8E70A480B4986
:1000E0000022884202D202600430FAE700F012F8DF
:1000F00000F0DAF900F02EF8FEE700000405000039
:10010000000000200400002004000020080000205F
:10011000FEE7C0460B4B0C4A01211A600B4A1A60DD
:1001200001230B4A136093681942FCD0002370210D
:10013000D360074AD3681942FCD10721137C8B4353
:1001400013747047002006400400FA5A0500FA5A5A
:100150000000064070B501220E21012000F01CF8BD
:1001600001220F21012000F017F8142500F084F976
:10017000002401267440E4B222000E21012000F088
:100180002BF8FA20013D400000F068F9002DF1D174
:1001900000F080F930BFFDE7022811D00CD800280C
:1001A00010D0094B012088409C468A405B688343FD
:1001B00013436246536070470328FCD1034BF1E7B9
:1001C000034BEFE7034BEDE70060044000A0044061
:1001D0000080044000400440002A09D002281BD0BF
:1001E00024D800281DD001238B40174A5362704742
:1001F00002280CD021D8002804D001238B40124AB9
:100200009362F4E701238B40104A9362EFE70123E6
:100210008B400F4A9362EAE701238B400C4A5362FA
:10022000E5E701238B40094A5362E0E70328DED16A
:1002300001238B40074A5362D9E70328D7D1012312
:100240008B40044A9362D2E70060044000400440BF
:100250000080044000A00440F0B5CE4647460500AB
:100260008C4680B5032939D903230E1FB0469E431F
:10027000331D99460024802101200127194A2B595A
:100280009467D367575053581842FCD1B44201D0F9
:100290000434F4E7032362461A40434694469B081D
:1002A0009B0004355D196346002B13D00021002309
:1002B000EA5CD8008240013311436345F8D14B46D4
:1002C000084A80209367D16780230121D1501358B9
:1002D0001942FCD1C0BCB946B046F0BD00239946D6
:1002E000E1E7C04600C0054010B54378062B11D0A9
:1002F000092B0AD0052B08D0184B5B68DB0108D40A
:10030000E022174B12061A6003E0A022134B1206DC
:100310009A6110BDC378012B14D0022BECD1C379A4
:1003200082791B0213431A1C122B00D912220D488A
:1003300094B22100FFF790FFA023094A1B06234334
:100340001360E6E7C37982791B0213431A1C122B50
:1003500000D91222044894B2EBE7C04600C0054021
:1003600018C00540DC040000F0040000CC2210B5E9
:10037000214B520482B09A6080222048120602600B
:10038000596880220C00D202144011422BD1022164
:10039000802202209C6799507E315A581042FCD12D
:1003A000DA6F944604229A67585080200221124A3C
:1003B00013581942FCD1D36F614601936046602304
:1003C0000091194003420AD0202906D05368DB016E
:1003D00003D4E022094B12061A6002B010BD684631
:1003E000FFF782FFF9E79A605B68DB01F5D4E02351
:1003F0001B060360F1E7C04600C0054018C0054079
:100400000D4A0E49536810B59160002B02D005DBF0
:100410001B0200D410BDFFF7A9FFFBE7A0200021BD
:100420000006D1609061064A1160064A1160064AD2
:1004300011601B02EED5EEE700C00540FFFFFBFE9A
:100440001CC0054020C0054024C00540024A136876
:10045000013313607047C04604000020054A13684A
:1004600018181368984203D930BF13688342FBD32E
:100470007047C046040000200022044B04491A6063
:1004800059609A6007321A607047C04610E000E079
:100490007FBB00000022024B5A6202480047C04660
:1004A000000006400103FF1F70B5084C084DAC4228
:1004B00003D008CC9847AC42FBD1064C064DAC4269
:1004C00003D008CC9847AC42FBD170BD04050000B6
:1004D00004050000040500000405000009021200E4
:1004E00001010080320904000000FF00000000004C
:1004F00012010002FF000040450C283100010000FD
:0405000000010000F6
:0405040000000000F3
:047FFC0000BF00BF03
:0480000000BF00BFFE
:04FFFC005555AAAA03
:04000003000000C138
:00000001FF
